:020000040800F2
:1000000000000220150900086509000865090008BC
:10001000650900086509000865090008000000007E
:10002000000000000000000000000000650900085A
:10003000650900080000000065090008650900085E
:1000400065090008650900086509000865090008D8
:1000500065090008650900086509000865090008C8
:1000600065090008650900086509000865090008B8
:1000700065090008650900086509000865090008A8
:100080006509000865090008650900086509000898
:100090006509000865090008650900086509000888
:1000A0006509000865090008650900086509000878
:1000B0006509000865090008650900086509000868
:1000C0006509000865090008650900086509000858
:1000D0006509000865090008650900086509000848
:1000E0006509000865090008650900086509000838
:1000F0006509000865090008650900086509000828
:100100006509000865090008650900086509000817
:100110006509000865090008650900086509000807
:1001200065090008650900086509000865090008F7
:1001300065090008000000000000000065090008D3
:1001400065090008650900086509000865090008D7
:1001500065090008650900086509000865090008C7
:1001600065090008650900086509000865090008B7
:10017000650900086509000865090008000000001D
:1001800000000000650900080000000000000000F9
:100190006509000800000000000000006509000873
:1001A00000000000000000000000000065090008D9
:1001B0006509000865090008650900086509000867
:0401C00065090008C5
:1001C4000348044B834202D0034B03B118477047E2
:1001D4000000002000000020000000000548064B3D
:1001E4001B1AD90F01EBA301491002D0034B03B131
:1001F40018477047000000200000002000000000A5
:1002040010B5064C237843B9FFF7DAFF044B13B15A
:100214000448AFF300800123237010BD00000020C8
:1002240000000000B009000808B5054B1BB10549E2
:100234000548AFF30080BDE80840FFF7CFBF00BF1B
:100244000000000004000020B0090008034AD2F8AE
:10025400883043F47003C2F88830704700ED00E042
:100264002DE9F04700F002FB614CA36943F0200341
:10027400A36140F6C41000F041FBA36943F40013EA
:10028400A36140F6C41000F039FBA36943F02003D6
:10029400A36140F6C41000F031FBA36943F40013DA
:1002A400A36140F6C41000F029FB636903F0010167
:1002B400504A1180C3F340014F4A1180C3F3001127
:1002C4004E4A1180C3F340114D4A1180C3F380118B
:1002D4004C4A1180C3F3C0134B4A1380A4E041F28B
:1002E400883000F00BFB424CA36943F00103A36187
:1002F400636903F00103DFF8FCA0AAF8003041F2BF
:10030400883000F0FBFAA36943F00203A361636938
:10031400C3F34003DFF8E090A9F8003041F28830DD
:1003240000F0ECFAA36943F01003A3616369C3F31B
:100334000013DFF8C880A8F8003041F2883000F0DC
:10034400DDFAA36943F02003A3616369C3F3401397
:100354002B4F3B8041F2883000F0D0FAA36943F080
:100364004003A3616369C3F38013264E338041F2D3
:10037400883000F0C3FAA36943F08003A361636982
:10038400C3F3C013204D2B8041F2883000F0B6FA3D
:10039400A36943F48032A26143F44032A26143F47E
:1003A4009812A26143F44C12A26143F4E602A261E2
:1003B40043F47303A361636903F00102AAF8002004
:1003C400C3F34002A9F80020C3F30012A8F80020E8
:1003D400C3F340123A80C3F380123280C3F3C013D4
:1003E4002B800023094A1380094A138069E000BF67
:1003F40000000240340000203200002030000020C1
:100404002E0000202C0000202A00002028000020BC
:1004140024000020734B1B88002B40F00181724B99
:100424001B88002B40F08481704BD3F8103813F4F0
:10043400005F0CBF012100216D4A118003F001010E
:100444006C4A1180C3F340026B480280C3F3C013AB
:100454006A48038011B164490120088012B1614ADD
:100464000121118043B1664A12882AB965490A8874
:10047400B2FA82F252090A80614A13805B4B5B69CB
:1004840003F00101604A1180C3F340015F4A118007
:10049400C3F300115E4A1180C3F340115D4A118019
:1004A400C3F380115C4A1180C3F3C0135B4A138009
:1004B400544B1B88002BADD14B4B1B88002B7FF476
:1004C4000EAF4B4B1B88002BAED041F2883000F0AE
:1004D40015FA464CA36943F08002A26143F0C002BE
:1004E400A26143F0E002A26143F0F002A26143F092
:1004F400F202A26143F0F303A361636903F0010212
:10050400414D2A80C3F34002404E3280C3F30012AF
:100514003F4F3A80C3F34012DFF8F880A8F8002078
:10052400C3F38012DFF8F090A9F80020C3F3C013DE
:10053400DFF8E8A0AAF8003041F2883000F0DEF9D4
:10054400A36943F40003A3616369C3F3C013AAF866
:10055400003041F2883000F0D1F9A36943F48003FC
:10056400A3616369C3F38013A9F8003041F28830B2
:1005740000F0C4F9A36943F40013A3616369C3F3EE
:100584004013A8F8003041F2883000F0B7F9A369AD
:1005940043F48013A3616369C3F300133B8041F206
:1005A400883000F0ABF9A36943F40033A3616369B5
:1005B400C3F34003338041F2883000F09FF9A3690C
:1005C40043F48033A361636903F001032B8041F298
:1005D400883000F093F90023034A1380014A138002
:1005E40022E700BF24000020280000200000024071
:1005F4003600002026000020220000201E000020DB
:100604001C000020200000203400002032000020C4
:10061400300000202E0000202C0000202A000020A2
:1006240041F2883000F06AF9874CA36943F0010372
:10063400A361636903F00103DFF824A2AAF8003080
:1006440041F2883000F05AF9A36943F00203A36130
:100654006369C3F34003DFF80C92A9F8003041F258
:10066400883000F04BF9A36943F01003A361636978
:10067400C3F30013DFF8F081A8F8003041F28830AA
:1006840000F03CF9A36943F02003A3616369C3F359
:1006940040136E4F3B8041F2883000F02FF9A3697C
:1006A40043F04003A3616369C3F38013684E33804E
:1006B40041F2883000F022F9A36943F08003A3617A
:1006C4006369C3F3C013634D2B8041F2883000F09B
:1006D40015F9A36943F48032A26143F44032A26164
:1006E40043F49812A26143F44C12A26143F4E6026B
:1006F400A26143F47303A361636903F00102AAF8DE
:100704000020C3F34002A9F80020C3F30012A8F8A4
:100714000020C3F340123A80C3F380123280C3F343
:10072400C0132B8000234C4A13804C4A138076E676
:1007340041F2883000F0E2F8434CA36943F08002B0
:10074400A26143F0C002A26143F0E002A26143F05F
:10075400F002A26143F0F202A26143F0F303A36149
:10076400636903F001023E4D2A80C3F340023D4E0B
:100774003280C3F300123C4F3A80C3F34012DFF8D7
:10078400CC80A8F80020C3F38012DFF8C490A9F845
:100794000020C3F3C013DFF8BCA0AAF8003041F274
:1007A400883000F0ABF8A36943F40003A3616369E4
:1007B400C3F3C013AAF8003041F2883000F09EF869
:1007C400A36943F48003A3616369C3F38013A9F8A5
:1007D400003041F2883000F091F8A36943F400132B
:1007E400A3616369C3F34013A8F8003041F2883071
:1007F40000F084F8A36943F48013A3616369C3F32D
:1008040000133B8041F2883000F078F8A36943F488
:100814000033A3616369C3F34003338041F288303A
:1008240000F06CF8A36943F48033A361636903F0B7
:1008340001032B8041F2883000F060F80023064A5F
:100844001380064A1380EFE5000002402E000020CA
:100854002C0000202A000020280000202400002072
:10086400340000203200002030000020F0B5214D7B
:10087400D5F8301841F00103C5F830381E4B1A681A
:1008840042F00100186042F00500186040F20514BF
:1008940042EA0400186040F2055C42EA0C00186069
:1008A40041F2055042EA00061E6045F2055E42EA46
:1008B4000E021A6000265E609A6842F001079F608B
:1008C40042F005079F6014439C6042EA0C049C605C
:1008D4001043986042EA0E029A60DA6842F0747239
:1008E40042F41042DA6041F00501C5F83018C3F84B
:1008F4000C68F0BD003002400000024003E0013B00
:10090400002BFCD1013810B14FF47A73F8E770472B
:10091400DFF834D00D480E490E4A002302E0D458C3
:10092400C4500433C4188C42F9D30B4A0B4C002333
:1009340001E013600432A242FBD3FFF787FC00F00E
:1009440011F8FFF78DFC7047000002200000002022
:1009540000000020D009000800000020380000201A
:10096400FEE7000070B50D4D0D4C641BA41000266D
:10097400A64209D10B4D0C4C00F018F8641BA410CE
:100984000026A64205D170BD55F8043B98470136B0
:10099400EEE755F8043B98470136F2E7C80900082A
:1009A400C8090008C8090008CC090008F8B500BF48
:1009B400F8BC08BC9E467047F8B500BFF8BC08BC3C
:0409C4009E46704794
:0409C8002D020008F4
:0409CC000502000818
:0400000508000915D1
:00000001FF
