:020000040800F2
:1000000000000220F9020008490300084903000823
:1000100049030008490300084903000800000000E4
:10002000000000000000000000000000490300087C
:1000300049030008000000004903000849030008C4
:100040004903000849030008490300084903000860
:100050004903000849030008490300084903000850
:100060004903000849030008490300084903000840
:100070004903000849030008490300084903000830
:100080004903000849030008490300084903000820
:100090004903000849030008490300084903000810
:1000A0004903000849030008490300084903000800
:1000B00049030008490300084903000849030008F0
:1000C00049030008490300084903000849030008E0
:1000D00049030008490300084903000849030008D0
:1000E00049030008490300084903000849030008C0
:1000F00049030008490300084903000849030008B0
:10010000490300084903000849030008490300089F
:10011000490300084903000849030008490300088F
:10012000490300084903000849030008490300087F
:100130004903000800000000000000004903000817
:10014000490300084903000849030008490300085F
:10015000490300084903000849030008490300084F
:10016000490300084903000849030008490300083F
:100170004903000849030008490300080000000083
:10018000000000004903000800000000000000001B
:1001900049030008000000000000000049030008B7
:1001A00000000000000000000000000049030008FB
:1001B00049030008490300084903000849030008EF
:0401C00049030008E7
:1001C4000348044B834202D0034B03B118477047E2
:1001D4000000002000000020000000000548064B3D
:1001E4001B1AD90F01EBA301491002D0034B03B131
:1001F40018477047000000200000002000000000A5
:1002040010B5064C237843B9FFF7DAFF044B13B15A
:100214000448AFF300800123237010BD00000020C8
:10022400000000009403000808B5054B1BB1054904
:100234000548AFF30080BDE80840FFF7CFBF00BF1B
:10024400000000000400002094030008034AD2F8D0
:10025400883043F47003C2F88830704700ED00E042
:1002640038B500F029F841F2883000F01BF80B4C47
:10027400A36943F02003A3616369C3F34013084DEA
:100284002B8041F2883000F00DF8A36943F4001389
:10029400A3616369C3F340132B80E4E700000240C9
:1002A4001C00002003E0013B002BFCD1013810B1FD
:1002B4004FF47A73F8E770470C4AD2F8303843F0B9
:1002C4000103C2F830380A4B1A6842F480621A609B
:1002D40000225A609A6842F480629A604FF0C842E1
:1002E400DA609A6942F020029A6170470030024055
:1002F40000000240DFF834D00D480E490E4A0023B6
:1003040002E0D458C4500433C4188C42F9D30B4AC5
:100314000B4C002301E013600432A242FBD3FFF72D
:1003240095FF00F011F8FFF79BFF704700000220D3
:100334000000002000000020B4030008000000209A
:1003440020000020FEE7000070B50D4D0D4C641B2D
:10035400A4100026A64209D10B4D0C4C00F018F84D
:10036400641BA4100026A64205D170BD55F8043BB9
:1003740098470136EEE755F8043B98470136F2E713
:10038400AC030008AC030008AC030008B003000889
:10039400F8B500BFF8BC08BC9E467047F8B500BF6E
:0803A400F8BC08BC9E4670473E
:0403AC002D02000816
:0403B000050200083A
:04000005080002F9F4
:00000001FF
